{
  "contractName": "Test",
  "abi": [
    {
      "inputs": [
        {
          "internalType": "string",
          "name": "_text",
          "type": "string"
        }
      ],
      "stateMutability": "nonpayable",
      "type": "constructor"
    },
    {
      "inputs": [
        {
          "internalType": "string",
          "name": "",
          "type": "string"
        }
      ],
      "name": "balance",
      "outputs": [
        {
          "internalType": "uint256",
          "name": "",
          "type": "uint256"
        }
      ],
      "stateMutability": "view",
      "type": "function"
    },
    {
      "inputs": [],
      "name": "owner",
      "outputs": [
        {
          "internalType": "address",
          "name": "",
          "type": "address"
        }
      ],
      "stateMutability": "view",
      "type": "function"
    }
  ],
  "bytecode": "0x60806040523480156200001157600080fd5b506040516200094c3803806200094c833981810160405281019062000037919062000273565b60016000819055506040518060400160405280600781526020017f74657374696e6700000000000000000000000000000000000000000000000000815250600190816200008591906200050f565b5033600460006101000a81548173ffffffffffffffffffffffffffffffffffffffff021916908373ffffffffffffffffffffffffffffffffffffffff1602179055508060019081620000d891906200050f565b5050620005f6565b6000604051905090565b600080fd5b600080fd5b600080fd5b600080fd5b6000601f19601f8301169050919050565b7f4e487b7100000000000000000000000000000000000000000000000000000000600052604160045260246000fd5b6200014982620000fe565b810181811067ffffffffffffffff821117156200016b576200016a6200010f565b5b80604052505050565b600062000180620000e0565b90506200018e82826200013e565b919050565b600067ffffffffffffffff821115620001b157620001b06200010f565b5b620001bc82620000fe565b9050602081019050919050565b60005b83811015620001e9578082015181840152602081019050620001cc565b60008484015250505050565b60006200020c620002068462000193565b62000174565b9050828152602081018484840111156200022b576200022a620000f9565b5b62000238848285620001c9565b509392505050565b600082601f830112620002585762000257620000f4565b5b81516200026a848260208601620001f5565b91505092915050565b6000602082840312156200028c576200028b620000ea565b5b600082015167ffffffffffffffff811115620002ad57620002ac620000ef565b5b620002bb8482850162000240565b91505092915050565b600081519050919050565b7f4e487b7100000000000000000000000000000000000000000000000000000000600052602260045260246000fd5b600060028204905060018216806200031757607f821691505b6020821081036200032d576200032c620002cf565b5b50919050565b60008190508160005260206000209050919050565b60006020601f8301049050919050565b600082821b905092915050565b600060088302620003977fffffffffffffffffffffffffffffffffffffffffffffffffffffffffffffffff8262000358565b620003a3868362000358565b95508019841693508086168417925050509392505050565b6000819050919050565b6000819050919050565b6000620003f0620003ea620003e484620003bb565b620003c5565b620003bb565b9050919050565b6000819050919050565b6200040c83620003cf565b620004246200041b82620003f7565b84845462000365565b825550505050565b600090565b6200043b6200042c565b6200044881848462000401565b505050565b5b8181101562000470576200046460008262000431565b6001810190506200044e565b5050565b601f821115620004bf57620004898162000333565b620004948462000348565b81016020851015620004a4578190505b620004bc620004b38562000348565b8301826200044d565b50505b505050565b600082821c905092915050565b6000620004e460001984600802620004c4565b1980831691505092915050565b6000620004ff8383620004d1565b9150826002028217905092915050565b6200051a82620002c4565b67ffffffffffffffff8111156200053657620005356200010f565b5b620005428254620002fe565b6200054f82828562000474565b600060209050601f83116001811462000587576000841562000572578287015190505b6200057e8582620004f1565b865550620005ee565b601f198416620005978662000333565b60005b82811015620005c1578489015182556001820191506020850194506020810190506200059a565b86831015620005e15784890151620005dd601f891682620004d1565b8355505b6001600288020188555050505b505050505050565b61034680620006066000396000f3fe608060405234801561001057600080fd5b50600436106100365760003560e01c80633d80b5321461003b5780638da5cb5b1461006b575b600080fd5b61005560048036038101906100509190610237565b610089565b6040516100629190610299565b60405180910390f35b6100736100b7565b60405161008091906102f5565b60405180910390f35b6005818051602081018201805184825260208301602085012081835280955050505050506000915090505481565b600460009054906101000a900473ffffffffffffffffffffffffffffffffffffffff1681565b6000604051905090565b600080fd5b600080fd5b600080fd5b600080fd5b6000601f19601f8301169050919050565b7f4e487b7100000000000000000000000000000000000000000000000000000000600052604160045260246000fd5b610144826100fb565b810181811067ffffffffffffffff821117156101635761016261010c565b5b80604052505050565b60006101766100dd565b9050610182828261013b565b919050565b600067ffffffffffffffff8211156101a2576101a161010c565b5b6101ab826100fb565b9050602081019050919050565b82818337600083830152505050565b60006101da6101d584610187565b61016c565b9050828152602081018484840111156101f6576101f56100f6565b5b6102018482856101b8565b509392505050565b600082601f83011261021e5761021d6100f1565b5b813561022e8482602086016101c7565b91505092915050565b60006020828403121561024d5761024c6100e7565b5b600082013567ffffffffffffffff81111561026b5761026a6100ec565b5b61027784828501610209565b91505092915050565b6000819050919050565b61029381610280565b82525050565b60006020820190506102ae600083018461028a565b92915050565b600073ffffffffffffffffffffffffffffffffffffffff82169050919050565b60006102df826102b4565b9050919050565b6102ef816102d4565b82525050565b600060208201905061030a60008301846102e6565b9291505056fea26469706673582212207bf356d8aed1d92de191315af2b93a145d4932cd91d10f44482d3191130a248e64736f6c63430008130033",
  "immutableReferences": {},
  "source": "// SPDX-License-Identifier: MIT\r\npragma solidity ^0.8.18;\r\n\r\ncontract Test {\r\n  int num;\r\n  string text;\r\n  int[] numArr;\r\n  string[] textArr;\r\n  address public owner;\r\n  mapping(string => uint) public balance;\r\n\r\n  constructor(string memory _text) {\r\n    num = 1;\r\n    text = \"testing\";\r\n    owner = msg.sender;\r\n    text = _text;\r\n  }\r\n}\r\n",
  "sourcePath": "C:\\Users\\\\Documents\\GitHub\\blockchain7\\day98\\contracts\\Test.sol",
  "compiler": {
    "name": "solc",
    "version": "0.8.19+commit.7dd6d404.Emscripten.clang"
  },
  "schemaVersion": "3.4.13",
  "updatedAt": "2023-03-06T02:25:48.081Z",
  "devdoc": {
    "kind": "dev",
    "methods": {},
    "version": 1
  },
  "userdoc": {
    "kind": "user",
    "methods": {},
    "version": 1
  }
}